:020000040000FA
:06000000020DB802026EC1
:03002B00020B7F46
:0300330002029036
:030053000201A304
:03007B000208D5A3
:10008300020202010020FD000200007411000000C2
:1000930000000016120000D41100005C11000000E3
:1000A300000000000000000000000000000000004D
:1000B300000000000006FFFF00035F005F00300048
:1000C30058000000000000000000000000000000D5
:1000D300000000000000000000000000000000001D
:1000E3000000F7064C074C074C074C075407060063
:1000F30008FD170000000160EA0000C016CC1600DE
:1001030000D216D816000000000000000000000115
:10011300000000002020202020202020202020205C
:10012300202020200108040100010002ED8102F1DA
:100133008101010104004A18000000E8030000FFE8
:10014300FF1619E803000064006400B801A0BB0DAA
:1001530000A0BB0D00020200F8FF0705020704011F
:10016300051E02051E020A0A0102080803B80B0253
:10017300803E0102FEFFE8030A050001FFFF010ABA
:100183001401E0010105030101FF0F10FEFF8F2D94
:1001930000000000632C00000000FF000000FF00CF
:1001A300C0E074F1120698A2AFE433F509D2AF852B
:1001B300A708AFA1EF5508FE74105E6006120EF299
:1001C30075A1EF74085E6008120EF875A1F780241C
:1001D300EFA2E092F0E508A2E082F0501790619858
:1001E300E0F890049CE0C398A2D265D0335002E8B3
:1001F300F075A1FEE509A2E092AF7F02020754C0A9
:10020300E074F2120698A2AFE433FED2AF9061A479
:10021300E0F8759B00E59158540860087591F71252
:100223000F408023E59158541060087591EF120F29
:10023300468014E591A2E092F0E8A2E082F0500734
:10024300E0C2E0F01210909061A3E0F8E5E95854A1
:1002530004600E12106675E9FB906193E0A2E6401C
:10026300F2EEA2E092AF7F01020754C0E074F212F3
:100273000698A2AFE433FED2AF9061A5E0F8E5BFE4
:10028300585404600675BFFB1210A880D4C0E074F4
:10029300F1120698E59DA2E650FA906206E0F9A2F3
:1002A300E25034AA2CEA90620BF0F508852D09740C
:1002B300047808120DE6E508906207F08A08852D98
:1002C3000974097808120DE6E508543E906209F0B6
:1002D300906201E0D2E0F0E9782946F6906202E00C
:1002E300F50875090074047808120D3F7829E508AC
:1002F30046F608E50946F6906204E0F5087509003C
:1003030074097808120D3F782AE50946F6E9A2E058
:100313005003752B017406596003752B00E58BA2FE
:10032300E55006758BDF752B00121492758B00C296
:10033300E87F02020754C3E498F8E499F912037AB8
:100343008026C3E49AFAE49BFBE920E7E912037AE7
:10035300E498F8E499F922C3E498F8E499F91203CC
:100363007AE498F8E499F9C3E49AFAE49BFB22EB64
:1003730020E7CFE920E7E0B90010BB0008E88AF0E6
:1003830084F8AAF022E4FBC8FA22EB70227B10C89F
:1003930033C8C933C9335007C39AC3DBF280069A03
:1003A30050012ADBEAC833F4C8C933F4C9FA227509
:1003B300F008E4C833C8C933C933C99AC99B500488
:1003C300C92AC93BD5F0ECFBC833F4C8E4C9FA2207
:1003D30012041320F01430E72B74FFFCFBFA747F34
:1003E3008022E4FCFBFA7480801AB48008BC00F21B
:1003F300BB00EF800F50EBF9E4C39AFAE49BFBE4F4
:100403009CFCE499C6CC18C6CB18C6CA18C6F922F8
:10041300E4C9C608CAC608CBC6D3330308CCC6335F
:1004230092F0C3947F402E94184019C9B90704CAA7
:10043300CBCC225025C309CA33CACB33CBCC33CC64
:1004430033D9F422F4600DC9CCC313CB13CBCA1335
:10045300CAD9F6CC22E4FCFBFA2214FCFBFA2208EC
:100463000808EAC0E0EBC0E086F0E7A4FA180986C2
:10047300F0E7A42AFA180986F0E7A42AFA180986ED
:10048300F0E7A42AFA1986F0E7A4FBE5F02AFA19A3
:100493000886F0E7A42BFBE5F03AFA190886F0E7A3
:1004A300A42BFBE5F03AFA18180986F0E7A4C5F087
:1004B3002BFBE43AFA1908E7C5F0C6A426F6E5F0E3
:1004C3003BFBE43AFA1886F0E7A4F6E5F00826F6D3
:1004D300E43B08F6E43A08F6D0E0FBD0E0FA220861
:1004E3000808E630E711120CB91204FA080808C626
:1004F3004480C618181822181818E9799EC608CA25
:10050300C608CBC608CCC6C370207996CACBCC70BC
:1005130019798ECBCC70137986CC700EF9802ACAE8
:1005230033CACB33CBCC33CC331930E7F2CCCBCA81
:100533003350147004EA30E00DE4CA3ACACB3BCB23
:10054300CC3CCC500209C3E913C6CC182313C6CB49
:1005530018C6CA18C6F922E4CFC0E0E4CEC0E0E46E
:10056300CDC0E0E4CCC0E075F020E626F608E63323
:10057300F608E633F608E633F6181818EC33FCED04
:1005830033FDEE33FEEF33FFC3EC9709ED9709EE2E
:100593009709EF97191919400FFFEC97FC09ED978D
:1005A300FD09EE97FE191906D5F0BFECF709EDF733
:1005B30009EEF709EFF7191919D0E0FCD0E0FDD0E7
:1005C300E0FED0E0FF222518C582C0E0E51934FF24
:1005D300C583C0E0E518C3958224F810AF0885836E
:1005E300198582188008858319858218D2AFCEF0C9
:1005F300A3E520F0A37808E608F0A3DEFAEFF0A362
:10060300E58124FAF8E608F0A3E608F0A3E608F08B
:10061300A30808E608F0A3E608F0A315811581D026
:10062300E0FED0E0F8158115811581E8C0E0EEC049
:10063300E022120E68B90003020682E47921780DE4
:10064300B800028004F709D8FCE490042178C27949
:10065300188002F0A3D8FCD9FA7AE27B1B900086BB
:10066300781E79028015E493A3AD82AE838A828BD0
:1006730083F0A3AA82AB838D828E83D8E9D9E775F1
:1006830082257583827406120B1075826475832A22
:100693007400120B10C0D02518C582C0E0E51934D0
:1006A300FFC583C0E0E518C3958224F310AF088526
:1006B30083198582188008858319858218D2AFC86B
:1006C300F0A3E9F0A3EAF0A3EBF0A37908E709F0BC
:1006D300A3D8FAECF0A3EDF0A3EEF0A3EFF0A3D0D0
:1006E300E0F0A3D0E0F0A3D0E0F0A3E520F0A3E591
:1006F300F0F0A32212010002020000205104A81608
:1007030009000102030109024300020100801909E3
:100713000400000102020100052400100104240268
:100723000205240600010524010001070582034098
:10073300004009040100020A00000007058402408A
:1007430000000705040240000012070000350700FF
:1007530000851983851882E0C0E0A3E0F9A3E0FADD
:10076300A3E0FBA37808E0F608A3DFFAE0FCA3E02C
:10077300FDA3E0FEA3E0FFA3E0C0E0A3E0C0E0A38D
:10078300E0F5D0A3E0F520A3E0A3F5F010AF0885D2
:1007930083198582188008858319858218D2AFD082
:1007A30082D083D0E0F8D0E03275F0108E218F2212
:1007B300858226858325851882851983E0CEA3E06B
:1007C300CF852682852583EBC9EAC8EDCBECCAC366
:1007D300E833C8E933C9EA33CAEB33CBC3EA9EF53E
:1007E30024EB9FF523B35004AB23AA24EC33CCEDC5
:1007F30033CDD5F0DAAE21AF2222D083D082ECC044
:10080300E0EDC0E0E493A3FCE493A3FDED4C600DA5
:10081300120918EC24FFFCED34FFFD80EFE493A3F1
:10082300FCE493A3FDED4C600D120A1BEC24FFFCCA
:10083300ED34FFFD80EFD0E0FDD0E0FCE493A3C0F6
:10084300E0E493C0E022D083D082E9C0E0E493A344
:10085300C386F0C5F095F0F908E493A386F0C5F0DC
:1008630095F0700BE493A3C3994005E9048002A3B8
:10087300E475F002A42582F582E5F03583F583D093
:10088300E0F9E493A3C0E0E493C0E02285198385F3
:100893001882E0A3FEE0A3F5207808E0A3F608DFC2
:1008A300FAE0A3FFE0A3C0E0E0A3C0E0E0A3C0E060
:1008B300E0A3C0E0E0A3C0E010AF08858218858301
:1008C300198008858218858319D2AFD083D082021C
:1008D3000B16C0E074F2120698A2AFE433FED2AF57
:1008E300E58AA2E2500790045FE0D2E0F0E58AA235
:1008F300E3500790045FE0D2E1F0758A00C2EB7A1F
:10090300107B0090045BE0F9121300EEA2E092AFBB
:100913007F01020754C0E0C3E493960874019396E1
:1009230018400FE49366700808740193661870000A
:100933007019A3A3C3E49396087401939618A3A311
:10094300400DD0E0D0E0D0E0020839A3A3A3A3A3D5
:10095300A3D0E022D083D082C5F0E493A3C5F0C333
:1009630095F0F5F0E493A3C395F04005E5F004801A
:1009730001E475F002A42582F582E5F03583F58361
:10098300E493A3C0E0E493C0E022740480087403FA
:10099300800474028000CCC0E0EDC0E0E518C39C85
:1009A300CCAD1950011D10AF068C188D1980068C23
:1009B300188D19D2AF120A92D0E0FDD0E0FC227458
:1009C300028000CCC0E0EDC0E0E518C39CCCAD19BB
:1009D30050011D10AF068C188D1980068C188D19C7
:1009E300D2AF120A70D0E0FDD0E0FC22120DC86035
:1009F30025120DD76020120E867003020E7D0808A3
:100A030008E76670101819E766700A1819E7667028
:100A1300041819E76622F422C0E0C0F088F0E493DA
:100A23006670080874019366187000A8F0A3A37099
:100A33000BD0F0D0E0D0E0D0E0020839A3A3D0F08F
:100A4300D0E022D083D082CCC0E0E493A36006122E
:100A53000AF11470FAE493A36006120C281470FAD6
:100A6300D0E0FCE493A3C0E0E493C0E022CAC0E07A
:100A7300E493A3C582CCC582C583CDC583F0A3C54A
:100A830082CCC582C583CDC583DAE5D0E0CA22CA4C
:100A9300C0E0E0A3C582CCC582C583CDC583F0A3E6
:100AA300C582CCC582C583CDC583DAE6D0E0CA2230
:100AB3007009080808226016181818C6C333C60838
:100AC300C633C608C633C608C633C6D5E0EA22C055
:100AD30008C3E096F50808A3E096420808A3E09649
:100AE300420808A3E09645087001D3D00822C0E06D
:100AF300E493A3D39C5010E493A3C39C400AD0E097
:100B0300D0E0D0E0020A63A3A3A3D0E022C09FF504
:100B13009FE473D09F22D083D082C09FE493C0E030
:100B2300740193C0E0740293F59F2200C0D025188E
:100B330010AF08F518500C05198008F51850020578
:100B430019D2AFD0D0227404800A740380067402D1
:100B530080027401C0E0F404120B64D0E0120E139F
:100B6300222518F58210AF08F518400C15198008D6
:100B7300F51840021519D2AF85198322C0E0C0D001
:100B8300E8C0E0A8A8D2AFC2C7E8A2E792AFD0E01E
:100B9300F8D0D0D0E032BB0102E722C082C0838903
:100BA300828A83BB0003E08002E493D083D0822255
:100BB3006016080808C6C313C618C613C618C6139A
:100BC300C618C613C6D5E0EA22C3E0C696F608A344
:100BD300E0C696F608A3E0C696F608A3E0C696F626
:100BE300222518F8E43519F9222518FAE43519FBFA
:100BF300222518FCE43519FD22251810AF08F51835
:100C0300400C15198008F51840021519D2AF22BB04
:100C1300000EC082C0838A838982F0D083D082226F
:100C2300BB0101F722C0E0E493A36C7009D0E0D0CC
:100C3300E0D0E0020A63A3A3D0E022E766701008C5
:100C430009E766700A0809E76670040809E766227F
:100C5300C3E09608A3E09608A3E09608A3E096A253
:100C6300D265D03322E066701008A3E066700A08EC
:100C7300A3E066700408A3E06622C3E493960874B5
:100C83000193960874029396087403939622C3E023
:100C930096F008A3E096F008A3E096F008A3E09688
:100CA300F022C3E697F60809E697F60809E697F6F1
:100CB3000809E697F622181818E4C396F608E4968E
:100CC300F608E496F608E496F622E056F008A3E068
:100CD30056F008A3E056F008A3E056F022E627F604
:100CE3000809E637F60809E637F60809E637F62273
:100CF300E026F608A3E036F608A3E036F608A3E0FC
:100D030036F622E026F008A3E036F008A3E036F03A
:100D130008A3E036F022E657F60809E657F6080975
:100D2300E657F60809E657F622E056F608A3E0561A
:100D3300F608A3E056F608A3E056F62270042260F4
:100D43000D18C6C333C608C633C6D5E0F41822E46B
:100D530093F608740193F608740293F608740393E8
:100D6300F622E647F60809E647F60809E647F608D5
:100D730009E647F622C3E09608A3E09608A3E096A7
:100D830008A3E09622C6F4C608C6F4C608C6F4C68D
:100D930008C6F4C622C3E7960809E7960809E7964A
:100DA3000809E79622600D08C6A2E713C618C61302
:100DB300C6D5E0F32275D00075813F7518217519EA
:100DC3000400020635E6084608C3134608336002EA
:100DD300E633F422E7094709C3134709336002E7FF
:100DE30033F422600C08C6C313C618C613C6D5E075
:100DF300F422E6F008A3E6F008A3E6F008A3E6F081
:100E030022E0F608A3E0F608A3E0F608A3E0F62242
:100E1300CAC0E0E6F0A308DAFAD0E0FA22E0FCA3C5
:100E2300E0FDA3E0FEA3E0FF22EAF0A3EBF0A3ECD6
:100E3300F0A3EDF022E0FAA3E0FBA3E0FCA3E0FDC6
:100E430022E8F0A3E9F0A3EAF0A3EBF022ECF0A38D
:100E5300EDF0A3EEF0A3EFF022E0F8A3E0F9A3E0B6
:100E6300FAA3E0FB22E5C754F84401F5C779012250
:100E73002518F582E43519F58322E7271947194721
:100E8300194722E62618461846184622C2AF75D6D9
:100E93009F02000022120B191DFC04120B195DFCAA
:100EA30004120B1999FC04120B19ADFC04120B1953
:100EB300C6FC04120B19B7FD04120B1969FE0412C8
:100EC3000B197DFE04120B19B18A06120B19D58A70
:100ED30006120B19EE8A06120B192C8B06120B192C
:100EE3005C8B06120B19898B06120B19EF8B0612FA
:100EF3000B19F28B06120B19FC8B06120B19098CBA
:100F030006120B19DBF905120B19FBF905120B1964
:100F13003AFA05120B1958FA05120B1973FA05124E
:100F23000B19D9FA05120B19E5FA05120B1942FB35
:100F330005120B1966FB05120B1927FC05120B1979
:100F430034FC05120B1945FC05120B1927940612E4
:100F53000B193F9406120B196B9406120B198DD5BE
:100F630005120B19E9D605120B19F7D605120B1941
:100F73000AD705120B191FD705120B1934D70512FF
:100F83000B1947D705120B19C3D705120B1928D80C
:100F930005120B19BED805120B1997D905120B1997
:100FA300A7D905120B19B6D905120B19597F0012CF
:100FB3000B197D7F00120B19A57F00120B19CD7F32
:100FC30000120B19008006120B19278006120B1949
:100FD300458006120B19B48006120B1964F405122E
:100FE3000B197DF405120B1989F405120B199DF4E5
:100FF30005120B19BBF405120B19C5F405120B19D5
:10100300CFF405120B19E2F405120B1968F505125A
:101013000B19DDF505120B190CF605120B195AF60F
:1010230005120B19A9F605120B19C4F605120B19B3
:10103300CEF605120B19DFF605120B1922F705126E
:101043000B19E39506120B1966B305120B1992B32C
:1010530005120B19AFB305120B19C2B305120B1905
:10106300DDB305120B1937B405120B1965B405125C
:101073000B1975B805120B19D3B905120B1905BA5B
:1010830005120B1968BA05120B19DEBB05120B19F1
:1010930006BC05120B191BBC05120B192BBC051240
:1010A3000B196BBC05120B19ADBC05120B19BDBC9A
:1010B30005120B19A08E06120B19BA8E06120B1904
:1010C300E28E06120B19FB8E06120B191F8F0612E6
:1010D3000B193D8F06120B19548F06120B19828FB1
:1010E30006120B199D8F06120B19799606120B190E
:1010F300B5ED05120B19C5ED05120B19CCEE051252
:101103000B1900EF05120B1922EF05120B1945EF0E
:1011130005120B1963EF05120B199DEF05120B193D
:1011230002F005120B1944F005120B198BF005128E
:101133000B19B8F005120B19EFF005120B195B8DA3
:1011430006120B19798D06120B19DB8D06120B197A
:10115300758E06120B1914FF02120B19D08F06128B
:101163000B19189006120B19858706120B19C588DF
:1011730006120B19259E05120B1911A205120B1944
:1011830006A405120B1938A505120B1911A6051291
:101193000B19A8A705120B1974A805120B19C8A8D7
:1011A30005120B19118406120B19328406120B193E
:1011B300658506120B198F8506120B1973FC051230
:1011C3000B19E8FC05120B19F3FC05120B1914FD9E
:1011D30005120B19E8EF01120B197BF401120B191D
:1011E300DDF501120B19B4F701120B193DF80112C9
:1011F3000B19D4F801120B1993F901120B1987FA81
:1012030001120B199FFB01120B19CEFC01120B19D2
:10121300008005120B19038005120B198F87051225
:101223000B19E18805120B19428A05120B19198B48
:1012330005120B19F28B05120B19DB8C05120B1916
:10124300CF8D05120B19878E05120B19B78E051258
:101253000B19679005120B1991FE04120B19B1FEBD
:1012630004120B19C4FF04120B19C7FF04120B1944
:10127300138C06120B19498C06120B19658C061276
:101283000B19A78C06120B19B78C06120B19518D6B
:1012930006120B19ECF702120B19F6F702120B19CF
:1012A30030F802120B1999F802120B19B8F802124E
:1012B3000B19D1F802120B1973F902120B197CF9ED
:1012C30002120B19CDF902120B19F6F902120B19BE
:1012D30003FA02120B1974FA02120B1902FB02121F
:1012E3000B1950FB02120B1986FB02120B19E7FBB9
:1012F30002120B1910FC02120B1987FC02120B19B4
:10130300E3FC02120B1920FD02120B1957FD021206
:101313000B1969FD02120B197BFD02120B199AFDC1
:1013230002120B19A3FD02120B195EFE02120B1916
:10133300AAFE02120B19E8FE02120B1956D005126F
:101343000B1996D105120B19B9D105120B19CAD174
:1013530005120B19E9D305120B1909D405120B1940
:10136300BEFD01120B19F4FD01120B193CFE011213
:101373000B1995FF01120B19186B00120B19496C0D
:1013830000120B19856C00120B193F6E00120B191A
:10139300696E00120B19E27000120B192271001210
:1013A3000B19B67200120B19557300120B19AD739A
:1013B30000120B19407400120B197A7400120B19E6
:1013C300BC7400120B192F7600120B19AF770012A1
:1013D3000B19EC7900120B191A7A00120B19467AC1
:1013E30000120B194F7A00120B19A57A00120B1970
:1013F300357B00120B19737E00120B19F57E001258
:101403000B19039706120B19199706120B198695D8
:1014130006120B1955DE05120B196BDE05120B199B
:101423000FDF05120B194EDF05120B196BDF0512C7
:101433000B199CDF05120B19E9DF05120B191DE0CF
:1014430005120B1958E005120B194DE205120B1981
:10145300EE9106120B194D9206120B198B9206127E
:101463000B19CC9206120B19AC9406120B19DC94CF
:1014730006120B19119506120B19139506120B1967
:10148300159506120B19269506120B1928950612A7
:101493000B192B9506120B19238906120B19908928
:1014A30006120B19B28906120B19EA8906120B19D7
:1014B300208A06120B1947F105120B198EF105123A
:1014C3000B19B1F105120B19E9F305120B1903F40A
:1014D30005120B192EF405120B192E9606120B1971
:1014E3000FC405120B19E8C405120B19D7C5051251
:1014F3000B19E8C505120B19F9C505120B1943C6DB
:1015030005120B19F7C705120B1957C905120B1949
:1015130087C905120B1952CA05120B19B2CA051253
:101523000B19008004120B190C8004120B196E8026
:1015330004120B19788004120B19058104120B197C
:10154300418104120B19FD8104120B190A82041242
:101553000B196E8204120B19B78204120B198883BC
:1015630004120B19038404120B19C28504120B19FC
:10157300F58704120B195B8904120B19BC8A041238
:101583000B19488B04120B19948C04120B19978DA9
:1015930004120B19F18E04120B19BB9304120B19CD
:1015A300B29404120B19369504120B195B950412AD
:1015B3000B19809504120B19199604120B193796FF
:1015C30004120B199D9604120B19B99604120B19E8
:1015D300E99604120B19FB9704120B19CE98041207
:1015E3000B194B9A04120B196C9A04120B19EF9AEC
:1015F30004120B19959B04120B19DC9B04120B1993
:10160300549C04120B19B19C04120B193C9D041237
:101613000B19949E04120B1904A004120B1996A023
:1016230004120B19FCA004120B190DA304120B19BD
:10163300B2A404120B19C7A404120B19FFA40412B9
:101643000B196CA504120B19B0A504120B1921A6D2
:1016530004120B19C7A604120B19B4A804120B1910
:1016630083A904120B1995AA04120B1943AC041293
:101673000B19DD8506120B19798606120B199A864A
:1016830006120B19BF9606120B1960E604120B190A
:1016930094E604120B19D4E604120B1982E7041220
:1016A3000B1986E904120B19E2EA04120B196DEC0B
:1016B30004120B1940ED04120B195AED04120B1905
:1016C30097ED04120B19D2ED04120B19EBED041272
:1016D3000B1907EE04120B190AEE04120B1951EE43
:1016E30004120B1988F004120B19ADF004120B1934
:1016F3005CF104120B19D4F104120B19E9F1041271
:101703000B1931F604120B1998F704120B1970D642
:1017130003120B19CBD603120B195BD703120B1948
:10172300D4D803120B19B4D903120B19A2DA03127A
:101733000B19B9DA03120B190BDB03120B197FDB3D
:1017430003120B19CBDB03120B19DEDB03120B198C
:1017530037DC03120B19A6DC03120B19BEDC0312D0
:101763000B1986DF03120B191CE003120B1953E04C
:1017730003120B199CE003120B199EE203120B19BF
:10178300EEE203120B19C8E303120B1901E403126F
:101793000B1920E403120B196BE403120B198BE4EE
:1017A30003120B1942E503120B1912E603120B196C
:1017B3001DE603120B1991E603120B19ECE6031253
:1017C3000B1939E703120B1944E803120B19E8EA62
:1017D30003120B191BEB03120B19BDEB03120B19AD
:1017E300E2EB03120B1966EC03120B1943ED031220
:1017F3000B1981ED03120B19E5ED03120B19A3EE7F
:1018030003120B19A6EE03120B19B0EE03120B19F8
:10181300BAEE03120B19D6EE03120B1952EF031291
:101823000B198BEF03120B19A7EF03120B19D3EF4D
:1018330003120B19FAEF03120B191EF003120B1903
:1018430059F003120B19CCF003120B1900F1031218
:101853000B1941F103120B195BF103120B1982F1FE
:1018630003120B19B1F103120B19D1F103120B1966
:101873000EF203120B1945F203120B1948F303126C
:101883000B1980F403120B199FF403120B19B6F40E
:1018930003120B19C8F403120B192E9506120B1918
:1018A300469506120B192ECB05120B196CCB05129C
:1018B3000B1905CC05120B1910CD05120B1958CFB6
:1018C30005120B19D5CF05120B19EDBC05120B1917
:1018D3003CBD05120B19FABE05120B19B4C0051253
:1018E3000B19F2C005120B19E7C105120B19F2C24D
:1018F30005120B1914C305120B195EC305120B193C
:10190300DFC305120B192ED802120B1951D802127C
:101913000B1952D902120B199BD902120B19FBD9BD
:1019230002120B1957DA02120B19A8DA02120B1959
:101933001EDB02120B19A1DB02120B1916DC0212B9
:101943000B1959DC02120B1941E002120B199AE22E
:1019530002120B19CDE202120B1923E302120B1927
:101963006DE602120B19F2E602120B197CE8021261
:101973000B1985E902120B19B5EA02120B1919EBBF
:1019830002120B19D9EB02120B193DEC02120B19BF
:1019930040EC02120B1915ED02120B194DEE021257
:1019A3000B1914F002120B192CF202120B192DF35E
:1019B30002120B19BBF302120B1913F502120B19C6
:1019C3004BF602120B198AF602120B193EF702129A
:1019D3000B196EAE04120B190EAF04120B197AAF6A
:1019E30004120B1995AF04120B1936B004120B191C
:1019F3007DB004120B19A4B104120B19E7B1041240
:101A03000B1963B204120B19B6B204120B1915B3F6
:101A130004120B19C3B304120B197EB604120B196B
:101A2300A8B704120B1931B804120B1914BA041213
:101A33000B19B8BA04120B1957BB04120B19B8BB14
:101A430004120B1927BC04120B198BBD04120B19BA
:101A53006ABE04120B19A5BE04120B19C5BE0412EB
:101A63000B1976BF04120B19B3BF04120B193CC038
:101A730004120B19D6C104120B199CC304120B19BF
:101A83001FC504120B1991C604120B19A0C7041227
:101A93000B192DC804120B1997C804120B19AEC9E0
:101AA30004120B1901CB04120B196CCB04120B1982
:101AB300B4CB04120B19F8CB04120B1953CC041238
:101AC3000B19B0CC04120B19EBCC04120B196FCD0C
:101AD30004120B19C9CD04120B1938CF04120B19B8
:101AE300B0CF04120B19C8D004120B19F0D0041292
:101AF3000B19FCD104120B190DD204120B1925D2A8
:101B030004120B194ED304120B1971D304120B19BF
:101B13004AD404120B196ED404120B1985D404127F
:101B23000B19A9D404120B19CBD404120B19A5D584
:101B330004120B19FFD504120B1979D704120B19D0
:101B4300D5D704120B19ECD704120B191AD80412A7
:101B53000B196CD904120B19EBD904120B1922DAE5
:101B630004120B195CDA04120B19C8DA04120B19EC
:101B730087DB04120B1965DD04120B1965DE0412F1
:101B83000B1970DF04120B1982E004120B19AAE17E
:101B930004120B19B8E104120B1922EA05120B19EE
:101BA3005FE304120B19A5E304120B19BAE3041241
:101BB3000B19C2E404120B1963E504120B19BFE5F8
:101BC30004120B1948E605120B1903E805120B1949
:101BD300C2E805120B1917E905120B199DE9051245
:101BE3000B195AE205120B1978E205120B19BCE224
:101BF30005120B19E2E205120B1909E305120B1981
:101C030021E305120B1939E305120B1951E30512F0
:101C13000B1986F904120B1935E405120B194AE462
:101C230005120B196CE505120B1975E505120B1955
:101C33007EE505120B1987E505120B1991E50512CF
:101C43000B19E7D905120B19DBDD05120B19E9DDB9
:101C530005120B19EEDD05120B199E8206120B19E4
:101C6300CEFF05120B19239706120B1900800212DF
:101C73000B19578002120B19C38002120B194F81E3
:101C830002120B19058202120B194D8202120B1953
:101C9300668202120B19898202120B19AB8202129D
:101CA3000B19E98202120B19388302120B19638391
:101CB30002120B19C18302120B19688402120B1949
:101CC300108502120B198C8502120B195986021208
:101CD3000B19A08602120B19EC8602120B197487DA
:101CE30002120B19AD8702120B19038802120B198A
:101CF3001F8802120B194E8802120B195A8A0212FC
:101D03000B19888B02120B19B48B02120B19E88B77
:101D130002120B19098C02120B19188C02120B19DF
:101D2300238C02120B19D28C02120B19428D021250
:101D33000B19CD8D02120B19D58D02120B19428E80
:101D430002120B197E8E02120B19448F02120B1909
:101D5300179002120B196C9002120B190B910212BD
:101D63000B19659102120B19AA9102120B194394D4
:101D730002120B19869502120B19709802120B1995
:101D8300549902120B19389A02120B19499A02122A
:101D93000B19BB9A02120B19529B02120B19B79B18
:101DA30002120B19A79C02120B19CC9C02120B19DD
:101DB300EA9C02120B19069D02120B19799D02125D
:101DC3000B19889D02120B19109E02120B190D9FFD
:101DD30002120B191A9F02120B19239F02120B19DD
:101DE30005A102120B1927A202120B1937A2021224
:101DF3000B1965A302120B19E4A302120B19FFA41A
:101E030002120B193BA502120B1915A702120B198B
:101E1300D2AA02120B19E6AA02120B19F0AA021295
:101E23000B19FAAA02120B1904AB02120B191DAB00
:101E330002120B1927AB02120B1994AB02120B19E6
:101E43009FAB02120B19C7AB02120B19D2AB0212D2
:101E53000B1937AC02120B1942AC02120B1966AC08
:101E630002120B198AAC02120B19FCAC02120B19E9
:101E730045AD02120B1961AD02120B19D2AD02125C
:101E83000B191EAE02120B1967AE02120B19A5AE87
:101E930002120B1926AF02120B19CDAF02120B1946
:101EA3009CB102120B1901B202120B192FB30212C9
:101EB3000B1955B302120B199DB402120B19D7B7A4
:101EC30002120B19D5B902120B19A0BB02120B197E
:101ED30039BC02120B193ABE02120B19EFBE0212E1
:101EE3000B1928BF02120B198EBF02120B1998BFD0
:101EF30002120B19C1C102120B1900C302120B19F2
:101F030057C302120B1902C402120B19B2C50212F3
:101F13000B19FFC602120B191FC702120B1974C744
:101F230002120B1975C802120B199DC802120B1964
:101F3300FCC802120B19F4C902120B196BCA021264
:101F43000B197ECB02120B19ECCB02120B19EBCC43
:101F530002120B1945CF02120B196ECF02120B1985
:101F6300D4D002120B1956D202120B19ADD202129F
:101F73000B195BD302120B1900D402120B1959D49B
:101F830002120B1917D502120B19A9D502120B193C
:101F930008D602120B194AD602120B197BD602126B
:101FA3000B19D2D702120B19008003120B193280BE
:101FB30003120B196B8003120B19298203120B19DD
:101FC300FF8203120B195E8303120B19748403122D
:101FD3000B19C08403120B194E8703120B19288A9D
:101FE30003120B196F8B03120B19078C03120B19B6
:101FF300138C03120B195C8C03120B199E8D0312A5
:102003000B19948E03120B19BE8E03120B19148F26
:1020130003120B196D8F03120B19E08F03120B19A7
:10202300169203120B19989303120B19839403123C
:102033000B19CD9503120B19059803120B19029B6B
:1020430003120B19119B03120B19A59B03120B19F6
:10205300509C03120B19939C03120B19FB9C031244
:102063000B19179D03120B19469D03120B19859D1E
:1020730003120B19809E03120B192F9F03120B19C6
:10208300ACA103120B19DEA203120B19B6A30312A0
:102093000B1938A403120B196DA803120B199CA872
:1020A30003120B19F7A803120B192AA903120B1910
:1020B300A2A903120B19D5A903120B1936AA0312ED
:1020C3000B1986AA03120B1953AB03120B190CAC91
:1020D30003120B19D0AC03120B194AAF03120B19DD
:1020E300ACB003120B19FDB103120B1921B3031288
:1020F3000B1924B303120B1953B303120B194BB56A
:1021030003120B190AB603120B1939B603120B1972
:1021130057B703120B191FB803120B19DDB90312BA
:102123000B190FBA03120B1951BA03120B1950BB37
:1021330003120B19C3BB03120B19ECBD03120B19CA
:102143004BBE03120B199FBE03120B19CEC0031211
:102153000B19B1C103120B1939C203120B1927C38F
:1021630003120B193BC303120B194FC303120B19B1
:102173007CC303120B19ACC303120B1967C50312FB
:102183000B1979C603120B19CEC603120B1917C705
:1021930003120B193EC703120B1906C803120B19BE
:1021A300ACC803120B1932CA03120B1979CA0312F2
:1021B3000B19EBCA03120B1940CC03120B19E9CC10
:1021C30003120B191DCD03120B1935CD03120B1975
:1021D300D8CD03120B1954D003120B19FCD10312DF
:1021E3000B191AD203120B1938D203120B1904D389
:1021F30003120B1952D603120B19248201120B1965
:102203005C8201120B19508701120B199C87011272
:102213000B19E28701120B19188901120B197D8919
:1022230001120B19F28A01120B19FC8D01120B1901
:10223300258F01120B19389901120B19C899011234
:102243000B19B29C01120B19BF9D01120B19229E8F
:1022530001120B196A9F01120B19D8A101120B1954
:102263006AA301120B19F7A301120B1916A5011288
:102273000B19A3A501120B19ADA501120B19D5A5B5
:1022830001120B1975A601120B1960A701120B1984
:102293002DA801120B194AA801120B1973A80112D8
:1022A3000B19A0A801120B19E7AA01120B19B6AB5F
:1022B30001120B19F5AB01120B1977AC01120B19B3
:1022C30018AD01120B194AAD01120B1991AD011290
:1022D3000B19C4AD01120B1908AE01120B1957AE3D
:1022E30001120B195CAE01120B19B8AE01120B19D6
:1022F300FCAE01120B19D6AF01120B193BB0011240
:102303000B19A1B001120B191CB101120B1984B4E2
:1023130001120B1987B501120B1905B701120B191D
:102323001BBA01120B19BDBA01120B1906BD01121A
:102333000B19C1BD01120B1900BE01120B19D8BF35
:1023430001120B19F5BF01120B19FEBF01120B1974
:1023530007C001120B1912C001120B1931C001126F
:102363000B19D5C101120B1932C201120B193CC250
:1023730001120B1946C201120B19A5C201120B1946
:10238300EFC201120B19F0C301120B1947C401125A
:102393000B1958C501120B19A1C501120B195BC604
:1023A30001120B1972C701120B1947C801120B193D
:1023B3008EC901120B1992CA01120B198BCB011290
:1023C3000B19A3CB01120B19DACB01120B19E4CBB6
:1023D30001120B19EECB01120B19F9CB01120B19D8
:1023E30017CC01120B195FCC01120B19BDCC0112D2
:1023F3000B19E4CC01120B19F6CC01120B19ABCD5E
:1024030001120B19E4CD01120B1906CF01120B199E
:1024130059CF01120B193FD001120B1966D00112CB
:102423000B19D6D001120B1952D101120B19AED2CE
:1024330001120B19D5D301120B1997D401120B19E1
:1024430065D501120B1923D601120B190BD70112F3
:102453000B19B5D701120B191DD801120B19D2D8BC
:1024630001120B192ED901120B1986D901120B195E
:102473004CDA01120B196FDA01120B192ADB011264
:102483000B194CDB01120B19ADDB01120B19DDDD4E
:1024930001120B19D6DE01120B1982DF01120B197F
:1024A300A3E101120B19ECE101120B1937E201123E
:1024B3000B1993E201120B19F1E201120B1915E347
:1024C30001120B1939E301120B196EE301120B19F7
:1024D30096E301120B19DBE301120B192FE401122E
:1024E3000B1988E401120B1982E501120B1920E77D
:1024F30001120B1965E701120B198EE701120B1973
:1025030017E801120B198AE801120B1998E8011256
:102513000B19BCE801120B1912E901120B192DE971
:1025230001120B19E8E901120B1914EA01120B1934
:1025330057EA01120B19BAEA01120B19C8EC01127E
:102543000B19F4EC01120B19AFED01120B1993EEF9
:1025530001120B1927EF01120B19E6A805120B192B
:102563001EA905120B193FA905120B1981A9051202
:102573000B19E5A905120B19EFA905120B19FFA9F0
:1025830005120B1936AA05120B19DFAD05120B192B
:10259300A7AF05120B198BB105120B192DB205123A
:1025A3000B19B7B205120B19563100120B19FF3173
:1025B30000120B19DE3200120B19EA3300120B1949
:1025C3000A3400120B192C3500120B19DC360012D9
:1025D3000B19493700120B191A3800120B1920393D
:1025E30000120B19983900120B19D33900120B1969
:1025F3002C3A00120B19673A00120B19B03A001269
:102603000B19443B00120B19DA3B00120B19AF3CB8
:1026130000120B19823D00120B19103E00120B1908
:10262300363E00120B19633E00120B19943E001242
:102633000B19613F00120B19713F00120B19C43FB4
:1026430000120B19D13F00120B19DE3F00120B19B8
:10265300E73F00120B194B4000120B19A94000125F
:102663000B19F44000120B190F4100120B193641DC
:1026730000120B19534100120B195F4100120B1981
:10268300F04200120B19094300120B198543001283
:102693000B19984300120B19A84300120B194C4451
:1026A30000120B19B84500120B19CB4600120B1977
:1026B3006B4700120B19754700120B19F4470012F0
:1026C3000B19054800120B19444800120B197248E4
:1026D30000120B193F4900120B19964900120B19EE
:1026E300CF4900120B19254A00120B19434A001255
:1026F3000B19914A00120B195C4B00120B19AA4BD0
:1027030000120B19F74B00120B197A4C00120B191C
:10271300A44C00120B19DA4C00120B19E94C0012ED
:102723000B19484D00120B19C04D00120B19014E25
:1027330000120B19514E00120B197C4E00120B198B
:10274300964E00120B19B04E00120B19854F001252
:102753000B198F4F00120B19CA4F00120B19DA4FC6
:1027630000120B19E34F00120B19345000120B190E
:10277300485000120B196A5100120B197F510012B5
:102783000B19125200120B19865200120B192B53FC
:1027930000120B19365300120B19995400120B191E
:1027A300B55400120B19015500120B196F55001285
:1027B3000B19A15500120B19BB5500120B191B560F
:1027C30000120B19BA5600120B19055700120B19F8
:1027D300585900120B19F05900120B19675A0012BD
:1027E3000B19C45C00120B19DC5C00120B19DF5CC3
:1027F30000120B19EB5C00120B19FF5C00120B1992
:10280300075D00120B193E5D00120B19325E0012B8
:102813000B19BC5E00120B193E5F00120B19BE5F51
:1028230000120B19956000120B19B76000120B19F7
:10283300506100120B19AD6100120B19B061001247
:102843000B191F6200120B196B6300120B197E64C4
:1028530000120B19096500120B191C6600120B19E3
:10286300E36600120B19146700120B193A67001282
:102873000B19436700120B19726700120B192268B8
:1028830000120B19D26800120B19456900120B19BB
:10289300E86900120B195B6A00120B199A6A00129D
:1028A3000B19E36A00120B197A9306120B192A9378
:1028B30006120B19F19206120B19EE9206120B195E
:1028C300D59106120B196D9106120B19E990061298
:1028D3000B191D9406120B19B59306120B199D9330
:1028E30006120B198D9306120B19419706120B1939
:1028F3005AF904120B199AF905120B1991F90512D9
:102903000B197CF905120B19F27F00120B19B4FF96
:1029130005120B1916FF05120B1905FF05120B19EA
:102923004B9D05120B196F9C05120B198D9B0512FC
:102933000B19EC9905120B19AB9905120B19829916
:1029430005120B19369905120B19A59805120B19C7
:10295300159805120B19F39705120B199B9705127E
:102963000B19579705120B19E49605120B1968F901
:1029730005120B197F9605120B1942F905120B1953
:102983001AF905120B1957F805120B1910F805124D
:102993000B19D7F705120B192DF705120B19C3FFE6
:1029A30003120B1950ED05120B192E9605120B1974
:1029B300559505120B19C59405120B197994051237
:1029C3000B197EEB05120B19F49305120B19AF9338
:1029D30005120B19939305120B19329205120B1959
:1029E300A9EA05120B19049205120B19F3E3051258
:1029F3000B19D19105120B19559105120B1978FF7B
:102A030003120B1916FF03120B19E1FE03120B1924
:102A1300AEFE03120B1986FE03120B191CFE0312E2
:102A23000B19FEFD03120B19CFFD03120B1996FAB6
:102A330003120B1983F803120B1986F603120B19F1
:102A430006F603120B19B4F503120B1930EA05123B
:102A53000B1968F503120B19FBF403120B19BDE2F2
:102A63000400000080FBE47387000100DD1C3500D7
:102A73000400A21C25000200A61C26000200A81CBC
:102A830027000200AA1C28000100B41C2900010031
:102A9300B51C84000400B61C86000100BA1C2A0081
:102AA3000100BB1C2B000100BC1C2C000100C01C3E
:102AB3002D00080098192E000100C11C2F000100F1
:102AC300C21C30000100C31C31000100C41C3200D1
:102AD3000100A01933000100A11934000100C51C35
:102AE30036000100A21938000100C61C390001009C
:102AF300BF1C83000200DB1C63000100AE196400ED
:102B03000100BD1C65000100BE1C6D000100AF1972
:102B130071000800901966000100DA1C43000100EF
:102B2300CB1C44000200CC1C45000100CE1C460017
:102B33000200CF1C47000800A61948000100D11C61
:102B43004B000100D21C04000100DE1CA1000100A7
:102B5300E11C37000100E01C88000100DF1C3C0081
:102B63000100A3193D000100C71C49000200D31C4A
:102B730067000100B0194D000200D51C4E00010092
:102B8300D71C4F000200D81C3E000100A5195100BC
:102B93000100C81C52000100C91C53000100CA1CDB
:102BA30054000100A41900000000000000013636A3
:102BB30001010001020100010301000104010606F5
:102BC30005020000070100340801000F0904010198
:102BD3000D0100FF0E08000017020000190100FF9D
:102BE3001A0100011B0100FE1C0100081D02000068
:102BF3001F01000120010001210200002301000F39
:102C0300240200002601000127010008280200FF1A
:102C13002A0100072B0102402C0100002D010001B5
:102C23002E0100012F0100FF30010B1D31080000B0
:102C33003A0100083B01000F3C0100013D0100FF88
:102C43003E04000042040000460400004A04000061
:102C53004E04000052040000560400005A04000011
:102C630001037103010301030103010301032203B0
:102C73000203010310030003000300030003000326
:102C830000030003420300032403060300030003BD
:102C9300040312032503230325032303040304036B
:102CA30000030003000344030003000323030003A2
:102CB30065032100350381030003050300030003BB
:102CC30000030003250323030302710230016002A2
:102CD300110270020102020202028002100261026A
:102CE3003A0041006302730272026202430200026D
:102CF3001302380000020002040212020002000262
:102D03000002000204020402370037003C024402BE
:102D1300000239000002000265020002350281024E
:102D23000002050282028302000201017101010116
:102D330001011101010131010101010180011001B2
:102D430061013B00140063017301720162014301DD
:102D53000001130106013D013500040112010001C8
:102D630000010001000104010401330133013C01AE
:102D73004401320136000001000165010001350004
:102D8300810100010501820183010001030071003B
:102D930030016000110070003102200350048000F4
:102DA30010006100000014006300730072006200F1
:102DB300430000001300060000000000040012009E
:102DC300000000000000000004000400370037008A
:102DD3003C02440000000000000000006500000009
:102DE300350081000000050000008300000003049B
:102DF3007104020460041104700402040204010457
:102E030002041004610400041404630473047204D0
:102E130062044304000413040604000400040404CD
:102E230012040004000400040004510464000004BC
:102E330000040004440400040004000400046504C6
:102E430000043504810464000504000483040004C1
:102E530036000100060000000F0000000000000023
:102E630000000000000003FFFF00000403FFFF0059
:102E730000FFFF0FF4010005C4040320000100005C
:102E83000B000000000000000003010F0000000021
:102E9300000000000000000000000000000000002F
:102EA3000000000000000000000000000000061603
:102EB30054160C164015000000000000000000002E
:102EC30000000000000012164015181640151E16CB
:102ED3004015241640152A1640153016401536168F
:102EE3005A163C16401500000000000000000000C8
:102EF300000042166C164816401542166C1648160A
:102F0300401536165A164E1640150000141A1300B3
:102F13009C191F00A2191F80A8190100141A02008E
:102F2300241903002A190400301905003619060074
:102F330042193000601931005A1932006C193300FC
:102F430072193500781934007E193600841911007E
:102F530090191400961915005419FFFF0000000082
:102F630003002001218200000000200122820000D2
:102F730004004201A4800000050042019380000088
:102F83000600420182800000070020012382000026
:102F930010004203721C00001100200310180000EF
:102FA30012001003831C06000000100113180A000E
:102FB30000000200000004000000080000001000F0
:102FC300000020000000400000008000000000011D
:102FD30000000002000000040000000800000010D0
:102FE30000000020000000400000013C2206662291
:102FF3000860220B7E22105A1F0242220554220728
:1030030048220C24220D302264561DFF000007ECD9
:10301300FDFDFDECDCDCCCBCACAC9C9C8C7C7C6C0A
:103023006C5C5C5C4C4C3C3C2C2C1C1C03EAF5E5B6
:10303300D5D5C5B5A59595858575756565555545ED
:10304300453535252515150500160F00000B150B05
:10305300020002220F3300000E5A69674265654180
:103063006C6C69616E6365303901030507090B0DEB
:103073000F00020406080A0C0D00000004060000FD
:1030830004060001040600020400034A49434E18E3
:103093001A25050200393D3F373C3C362C442D00B0
:1030A30001191618161618230300303017181921A2
:1030B300301B1D1F30303016181920231A1C1E30E8
:1030C3000C0E020B040B0A0708000F020402010195
:1030D30001010902E803000000BE040A00007F00AA
:1030E3000E00E80300000905040400100803030AA6
:1030F3001E0C0A10080C281EFF000903010C05080A
:10310300150404E004123986A2E792AF22E4F0A387
:10311300F0A3F022A3123110A3F0227F0C02088F38
:10312300E0F508E4F509F50AF50B227401F09004C3
:10313300B4E0640F227409120B2E7F0402088FA3DC
:10314300A3E024F5C39413229004D4125C7F7A1471
:103153007B0022C082C083901ACA7408F0A374262D
:10316300F0A3741AF0A37426F0901ACE74F0F0A3AF
:103173007425F0A374EAF0A37425F0A37426F0A3D6
:103183007426F0A3742CF0A37426F0A37420F0A388
:103193007426F0A374D8F0A37425F0901ADA74FCA3
:1031A300F0A37425F0A37402F0A37426F0A374F6BD
:1031B300F0A37425F0A37432F0A37426F0901AEBF5
:1031C30012520C6006125476121372901AE81249C6
:1031D3002F7408F0A3E4F0A3F0901B8BF0901AED8A
:1031E300F07C0BFDF97AEE7B1A1212A67C0B7D00A4
:1031F30079007AF97B1A1212A602493874F712057C
:10320300C974F7120BFCEAFEEBFF12475674051262
:1032130032CC7403F0EE2402FAE43F1232A6242DDA
:10322300FCE43FFD8C828D831233E41232B56008D7
:10323300123B2E74FFF0A3F0EE242BE43F1C1CFD85
:103243008C828D83A3E0C0E08A828B83124767D090
:10325300E01232B588828983124F5F2403125A49E0
:103263001214627408120E737403F09004C91209E5
:10327300957402120BF47903EEFAEFFB1227CA746A
:1032830002120B2EE9F5087007EEFAEFFB1226AADD
:10329300A9087409023B3EF582E43FF5831266B444
:1032A300124F54FB8A828B831232C4E8F0A3E9F0F5
:1032B300EE22125C9D1232C4E8F0A3E9126219E017
:1032C300221233AF8A828B8322F0A3E4F01232D42A
:1032D30022EE240DF582E43FF5832274F11205C931
:1032E300EAFEEBFF8C088D09890A1233B98A828BB7
:1032F300831233AF740F120E731233D2E824FF1804
:10330300E934FFF988828983E50A1233C49004CE35
:103313001233C19004CD1233C17411120E731233E0
:10332300D2EE2404FCE43FFD880B8A828B83E0F514
:103333000C8C828D83E0250CC3950B125C99E8F00D
:10334300A3E91246C3A3A3A3A3A3A3A3A3E0640374
:103353007008124A1FF0A3E480031236C51232CF5D
:103363007409F0750CEE750D1A750E00780C120BBE
:103373004D1236B912129A7403120B2E750CFF7587
:103383000DFF780C120B51AC08AD097903EEFAEF7F
:10339300FB1227CA7402120B2EE9F5087007EEFA26
:1033A300EFFB1226AAA9087F0702088FE024FFF883
:1033B300A3E034FFF922EE2402FAE43FFB221233A6
:1033C300E41233C822F0E824FF18E934FFF922E0BD
:1033D300F50CA31233E41233C888828983E50CF019
:1033E30022E08882898322C082C083901B0AE0C3C3
:1033F3009408400474078001E08A828B83F033339E
:103403003354F8F902493874F01205C9EAFEEBFFA8
:10341300890C8C0E8D0F750A00A2AFE433F50BC235
:10342300AF901B04803F1234F2503712350364030C
:103433007030EE24F9FEEF34FFFF8508828509839F
:10344300A3A3E02405FCA3E03400FDEEFAEFFB1296
:103453001462EE24FF1EEF34FFFF7410250AF50AF1
:10346300150C1246901266B0E50C6006E508450996
:1034730070B4E50BA2E092AFA2AFE433F50BC2AF99
:10348300901B04802C2402FAE43509FB8A828B8387
:10349300125C882406F582E438F5831235108A829B
:1034A3008B831234F8A3A3123510050A150C1246A8
:1034B300901246A56022123503640270F11234F2B1
:1034C300E50840C11237F3A2E550E3850E82850F6C
:1034D300837401F0E50C70D6E50BA2E092AF8E8207
:1034E3008F83E50AF0EE24FFFAEF34FFFB803512F9
:1034F30037FEA2E6221234FC2212607DA3A3A3228C
:103503008508828509831260771256B122E08E8284
:103513008F83F0EE24FF1EEF34FFFF2212289674F0
:1035230004120B2E7F0802088F74EC1205C974F580
:10353300120BFC89138A128B0F851882851983E479
:10354300F004120BEC1225BAE9F89004B3E0292435
:1035530034F508FA7B001212BE8A0A8B0BAE0AAF4F
:103563000BEE4F70030236ADEE2402F50AE43FF58D
:103573000BA808EE28F8E43FF9850A82850B83122D
:1035830032AE2404F510E43FF511851082F583E48F
:10359300F09004B3E0FCF8C3E498F895E0F9850AE9
:1035A30082850B83E028F508A3E039F5099004B17F
:1035B300125941750E00780C120B4D7D00AA08AB11
:1035C3000912129A7403120B2EAC18AD197401125E
:1035D3000E73E0F9E50824FFFAE50934FFFB122531
:1035E300C08A828B83E4F0EA24FFF508EB34FFF50D
:1035F30009E50FC454F0F9901B8CE0C4333354C075
:10360300F89004ADE0A2E0E43313134849440F12E9
:1036130036CDE512C454F04513850882850983F03D
:10362300A808850A82850B83E0FA851082851183B9
:10363300E02AC398F0850A82850B83E8F0A3E509A5
:10364300F01236C51232CFE4F0740A120E73E4F0AE
:103653007508F975091AF50A7808120B4D1236B96F
:1036630012129A7403120B2E851882851983E06057
:1036730009EE240E1247EC4408F01227B2E9F9E4EC
:10368300F508F5097808120B517404120BF4EEFADD
:10369300EFFB1227CA7402120B2EE97006EEFAEF43
:1036A300FB800BEEFAEFFB1212C47A007B00740B63
:1036B300120B2E02311E7C0B7D00EE2418FAE43F20
:1036C300FB2212475AE4F0A322E08508828509838E
:1036D3001236D722F01259152274F31205C98A0A39
:1036E3008B0BA2AFE433F50CC2AF7508007509006C
:1036F300901B04802C12391A5024850A82850B836F
:10370300A3A3126ADD8E828F83A3A3125479122797
:10371300B8E9600A123740C2E6F08E088F09123901
:103723000F123BC870CFE508450960061237FAD27D
:10373300E6F0E50CA2E092AF7F0502088F12374452
:103743002212592EE02274F01205C9EAFEEBFF8C17
:103753000C8D0D750E00A2AFE433F50FC2AF7508E3
:1037630000750900901B048020850A08850B091247
:1037730037FAD2E4F0E5081237F3D2E7F0E50A248A
:10378300FBF582E50B34FFF583E0F50AA3E0F50BC7
:10379300E50A450B6043E50A12457B350BF583E0EB
:1037A300A2E750D9850A82850B83A3A3120995AC9E
:1037B3000CAD0DEEFAEFFB1227BE7402120B2EE9CD
:1037C30060BBE508450960A1E508240D12380664CD
:1037D30001700612380FD2E4F0E50FA2E092AFE5D4
:1037E30008450960061226A4750E01A90E023527A5
:1037F3001245A5123809221237FE22E508241112B8
:10380300380622F582E43509F583E02285088285AE
:103813000983126077E02274F21205C974FE120B59
:10382300FC750C00750D00851882851983E4F0A3DF
:10383300F0A2AF33F50AC2AF901B04E0FEA3E0FF92
:103843008035EE24FBF582EF34FF1266AE780C125E
:103853000B51EEFCEFFD7A047B1B1212F47402127F
:103863000B2EEEFCEFFDAA18AB191212E2AE08AF55
:1038730009901B0AE014F0EE4F602712391A501D0D
:10388300EE240BF8E43FF988828983E024FFF0A358
:10389300E034FFF08882898312520C60A512390B41
:1038A3008099E50AA2E092AF901B0AE06031900490
:1038B300B4E0640F6006901B8BE070237AE27B1AFE
:1038C3001228A290821512098D7AE27B1A12289689
:1038D3007404120B2E800874F0124B56122698AA09
:1038E30018AB191212E88A0A8B0BAE0AAF0BEE4F14
:1038F30060131225CC123740A2E28E828F83A3502D
:10390300D674E980D4023BD08E0C8F0DEE24FBF5E8
:1039130082EF34FFF58322123744A2E72274F712B1
:1039230005C9EAFEEBFF1225CC124764122A69E9A6
:1039330064019004D0700AE02401F8A3E03400800D
:1039430004E0F8A3E0F9124DB2125164901B0AE0AF
:1039530070219004B4E0640F70197AE27B1A122884
:10396300A290821512098D7AE27B1A1228967404AA
:10397300120B2EA9A8C2AF901B0AE004123986A22B
:10398300E7800DF0E9A2E7E433F8E922E508A2E0D5
:1039930092AF024BF274F71205C9EAFEEBFF12393C
:1039A300CDF01225CCEEFCEFFD7A047B1B1212EE58
:1039B300A9A8C2AF901B0A1231069004B4E0640FA9
:1039C3007005790812276A024BF2123744C2E422C7
:1039D30074F71205C974EA120BFCEAFEEBFF9004BC
:1039E300ADE060408518828519837401F0120E736F
:1039F300E4123AA5120E73AA82AB831214628E826A
:103A03008F83123815C0E0740A120E73D0E0125C73
:103A1300AE740B120E73AA82AB831227E2AA18AB01
:103A230019121C427416023B3E74F71205C9EAFED2
:103A3300EBFF1225AEE9F974DC69601E74DD696081
:103A43001974E469601474F369600F74DE69600AC1
:103A530074DF69600574DB697007EEFAEFFB122708
:103A630070024BF274F71205C974EB120BFCEAFEF9
:103A7300EBFF8518828519837406123AA5120E731B
:103A8300AA82AB83121462125CB3740A120E73AA75
:103A930082AB831227E2AA18AB19121C42741502D7
:103AA3003B3EF0EE2413FCE43FFD74022274F71254
:103AB30005C974F7120BFCEAFEEBFFEE242D124747
:103AC300EC606512437DAA18AB19121462740812D4
:103AD3000E737403F09004C9120995123B2E120958
:103AE300959004DCE0F97404120BF4EEFAEFFB1288
:103AF30025B47404120B2EE9F974DC69602374DDB8
:103B030069601E74E469601974F369601474DE6992
:103B1300600F74DF69600A74E869600574DB6970BB
:103B230007EEFAEFFB122770023295EE123B3322B7
:103B3300242BF582E43FF583227403120B2E024BF0
:103B4300F274F21205C98A088B09750C00750D0011
:103B5300750AE7A2AFE433F50BC2AF901B048003F1
:103B630012390B123BC8603512391A50F31247E968
:103B7300640170ECEE242FF582E43F123D77E06898
:103B830070DE780C120B51EEFCEFFD7A047B1B12F6
:103B930012F47402120B2E901B0AE014F0E50BA230
:103BA300E092AFEE4F6013EEFAEFFB1225CC79F003
:103BB300EEFAEFFB122770750A00A90AAA08AB09EF
:103BC300122770800DE0FEA3E0FFEE4F2274021275
:103BD3000B2E7F0602088F74F41205C974F7120BBB
:103BE300FCEAFEEBFF8E828F83A3E064F370030293
:103BF3003C848E828F83A3E064DF7003023C848E57
:103C0300828F83A3E064E860788E828F83A3E0646D
:103C1300DB606E12260EE9F508705EEE240E124785
:103C2300EC6056123C8E122656EA4B604C74081216
:103C33000E73123C981209957508FF7509FF7808F1
:103C4300120B518E828F83A3A3A3A3A3A3A3A3E0E9
:103C5300F97404120BF41225B47404120B2EE9F553
:103C63000874F36508601274DF6508600C74E86516
:103C730008600674DB6508700F8E828F83A3E508E6
:103C8300F0EEFAEFFB12261A023138EE240FFAE4B3
:103C93003FFB790922740212647674FFF0A3123C8D
:103CA300A522123CA922124F68A3A32274F5120580
:103CB300C98A088B097E008A828B83A3A3A3A3A34B
:103CC300A312314240027EE88A828B83A3A3A3A37B
:103CD300A3A3A3A3A3A3E0C3941040047EE880138B
:103CE3008A828B83A3A3A3A3A3A3A3A3A3A3E06415
:103CF3000F600A901B68E0540870027EE8EA240B08
:103D0300F582E43509123D77A3A3A3A3A3A3A3A339
:103D1300E0C398500CEA240B123806640F60027E4D
:103D2300E89004CDE0F47003A3E0F470027EEC7A33
:103D3300237B0012136C901AEB125489901AEB1226
:103D4300520C6029850882850983A3A3A982AA83CB
:103D530089088A09750A007808120B4D7C237D00B7
:103D630012547612129A7403120B2E80027E1AEEEC
:103D7300F9026617F583E0F88A828B83A3A3227482
:103D8300F51205C9EAFEEBFF8E828F83A3A3A3A3DB
:103D9300A3A3A3A3E09004B41263599004CF1263C6
:103DA3003F9004AF12635E901B8CF0F9120FEE90FC
:103DB3001B8CE06018EE2404FAE43FFB7950120FE9
:103DC300D6EE2406FAE43FFB79E1120FD6901B8B63
:103DD30012312E6004740180027400901AED126394
:103DE30045120B4D7C0B7D007AEE7B1A12129A74EE
:103DF30003120B2EEE2418F508E43FF50978081298
:103E03000B4D7C0B7D007AF97B1A02660F74F71257
:103E130005C9EAFEEBFF8E828F83A3E0700612547E
:103E2300761226148E828F83742C124B5612277CA3
:103E3300024BF274F71205C9EAFEEBFF901AEB127C
:103E4300520C600D125476901AEBE4F0A3F01213A7
:103E5300728E828F837408124B56121C42024BF2ED
:103E630074F61205C9901B8BE06013901AEDE07095
:103E73000D123E841225C6EA4B60031226AA025F86
:103E8300B99004AFE0FB9004CFE0FA9004B4E0F9FA
:103E93002274F41205C974E7120BFCEAFEEBFF75FA
:103EA3000B018E828F83A3A3A3A3A3A3A3E0A2E208
:103EB3005068EE242BF582E43F126ADB123F521264
:103EC30025D2E9705590815AE064017005750B00A5
:103ED3008048123F5A120B4D7C0B7D007411120B5C
:103EE300EC12129A7403120B2E1227B2E9FA740E13
:103EF300120BE4880889097808120B51750830758C
:103F030009007808120B51123B2E120995125C4FCF
:103F130079011227D07406120B2E85188285198316
:103F23007410123AA5120E73AA82AB83121456129E
:103F33003B2E125C7B740B120E73125164740D12C0
:103F43000E73E50B1249C9121C42741902313AEE81
:103F53002413FAE43FFB22EE240812634D22C082AD
:103F6300C083901B8CE06003122824024938C0826E
:103F7300C083901B8374CAF0A3741AF0A374CEF0A9
:103F8300A3741AF0A374DAF0A3741AF0901CF574F6
:103F9300F1F0A3742DF0901B6D74A8F0A37425F0B9
:103FA300901B0F74DEF0A37425F0901B1174E4F0E2
:103FB300A37425F0901B68E044028001E4F00249F9
:103FC30038C082C083EAFCEBFD7903024FD4C08280
:103FD300C083EAFCEBFD7905024FD4C082C083792C
:103FE3000802614AC082C08374FE120BFC901B1747
:103FF3007492F0A37426F0901B19748CF0A37426AA
:10400300F0800D7A047B1B1212E81249BF1227A01D
:10401300901B0412520C70EB901B0612520C600F93
:104023007A067B1B1212E81249BF1227A080E9907F
:104033001B04E4F0A3F0901B0A12311174028002F6
:104043007411120B2E02493874F61205C9E9FF7474
:104053009729F582E43430F583E493FEFA7B00126A
:1040630012BEEA4B6011EA2E12515A8A828B83A345
:10407300A3A3A3E4F0802C7A027B001212BEEA4BC6
:10408300601D74AD2FF582E43430F583E4938A82A6
:104093008B83F0A3741AF0901B63E0F91212CA7AAF
:1040A300007B00025FB9E9FC740629F8EAA2E0503C
:1040B3001EE875F00A84E5F0F96014740A28C399C0
:1040C300F8E9C394054004740A28F8740B28F8EC43
:1040D300C3941340047A1480027A06EA28790024F0
:1040E30009F85001097A0A7B00120372E8F9020BFE
:1040F30016C082C083901B68E05402600A121C48F9
:10410300E96004790180027900024938C082C083E2
:10411300901B68E054026016901B0AE0700C125268
:1041230009600BE0C812469D5004790180027900B2
:10413300024938C082C083908157E0F8901B0CE09D
:10414300C39850051212BE80047A007B00024938DE
:10415300C082C0831227A0790002493874F7120580
:10416300C974FE120BFC851882851983EAF0A3EB50
:104173001242CEA3A3A3A3A3E0600A14606024FEAB
:10418300606902424F9004B4E0640F60181227760E
:10419300E97012851882851983125479901B1312C2
:1041A3004767122A699004DCE0C0E085188285190C
:1041B30083124F32D0E01242CE7414126472126A28
:1041C300DD7A067B1B1212E2A8A8C2AF901B0CE09B
:1041D3000412548F792012276A7402023B3E851819
:1041E3008285198312607F741580D08518828519A2
:1041F300831242B1A3A3E06053851882851983E03B
:104203002402F8A3E03400F9888289831268B0E0BD
:10421300C0E0851882851983E0FCA3E0CC2406F571
:1042230082E43CF583D0E0125CBB8882898312541C
:104233008985188285198312459985188285198382
:1042430060131242B660051242BE4043AA18AB196E
:104253001227A080841242B660F21242BE501C1292
:1042630046ADFA8518828519831242B8F874CD12C7
:1042730051553430F583E4936A60148518828519A7
:10428300831242B6640870C41246AD640870BD124E
:1042930046AD141242D6240AC0E0851882851983DC
:1042A300124767D0E01242D6040241BEE0F8A312DF
:1042B3004F7F22E0F8A3E01242DD228518828519A0
:1042C30083125C8C1242DEC3940A221242E8F58305
:1042D3008882221242E81242DD22C82406F582E4D3
:1042E30038F583E022126476E0F8A3E022C082C0AE
:1042F30083901B1B12520C6008126080122A698083
:1043030002790002493874F71205C9EAFEEBFF127D
:1043130032D47401F0EE2430F582E43FF583125970
:10432300E91232AE24321247ECC0E0EE2413F582D8
:10433300E43FF583D0E0F0EE24331247ECC0E0EE27
:104343002414F582E43FF583D0E0F0EE242CF582CB
:10435300E43FF58312099512437DEE242E1247ECB8
:10436300F91227CA7402120B2EE9F5087007EEFA48
:10437300EFFB1226AAA908024BF2EE2423FCE43F2A
:10438300FD22C082C083122776E96004792080026F
:104393007901024938C082C083EA12457B12443C4A
:1043A300D2E0023FC0C082C0831244366401701160
:1043B300124441400C8A828B83A3E0F91227708058
:1043C3006FEA2410124439A2E650128A828B83A327
:1043D300E0F9901B15124767122A6980531244367D
:1043E3006401700D12444150088A828B83743080BB
:1043F300368A828B83A3E0641B8A828B8370047466
:10440300228024A3E0700D124436F874B81251557B
:104413003430800B124436F874AD1251553430F5F4
:1044230083E4938A828B83F0901B63E0F91212CAB0
:10443300024938EA240DF582E43BF583E022EA12CF
:1044430045A53BF583E0A2E32274F71205C9E9FE13
:104453001252097003024572EE6011741B6E7013E1
:10446300E0C81245756405700302453D12606FE4B0
:1044730002454174E96E7062124591700B121C4E35
:10448300E960051245AB606279EE120F58901B0D7F
:1044930012458E901B0D603B1245AE901B0D700BA9
:1044A30012458E14F012110E024572124599C2E79D
:1044B3001246B91245756403700C125C8512457B74
:1044C3001242E3D2E2F079ED120F58124581122A1B
:1044D30069807512607274E9806474E16E703E12D3
:1044E3001C4EE960551245AB70509004D6E0C0E015
:1044F300125C852412F582E438F583D0E0F0900451
:10450300C5E0C0E0901B0D1242AF1242AFD0E0F005
:104513009004C5E004F079011210F68052741C6E09
:104523007018901B0D125479901B1D124767122AA5
:1045330069901B0DE4F0A3F0803512606FEEF090EC
:104543001B0D125479122698125C85125C57E054A5
:104553008060109004DCE0F91210129004DBE0F9A3
:10456300121006901B0DE4F0A3F0791012276A02D3
:104573004BF2240D1242E0222411F582E422901B17
:104583000D12547D901B1112607922E0F8A3E0C84C
:1045930024121242E022E0F8A3E0C81245A5124219
:1045A300E3222410F582E422901B0D125C8C125C32
:1045B3005BE054042274F41205C9750A00750B00FC
:1045C300A2AFE433FFC2AF12520960030246751271
:1045D3004764122A69E94410F8901B04800985088E
:1045E3000A85090B1246901246A5700302467512FE
:1045F30037FA586870E8780A120B51AC08AD097A9B
:10460300047B1B1212F47402120B2E901B0DE5088F
:10461300F0A3E5091246B912469D405D901B0BE0DD
:1046230014F0EFA2E092AF901B0DE0240EF8A3E08C
:104633003400F9880889098882F583125479901B1C
:104643000D1246B3F912265CE9901B08F01246C11D
:10465300E05480901B0D6026125C8824131242E004
:10466300F9121012125C8524141242E0F91210069A
:104673008018EFA2E092AF8011901B0A80A112452F
:1046830099A2E1B3E433F91210F602313DE50824AF
:10469300FBF582E50934FFF5832224111242E0A2DF
:1046A300E7221266B4E50845092285188285198335
:1046B3001234FCA3E022F0901B0D125C8C22A3E4C5
:1046C300F08508828509832274F71205C9EAFEEB97
:1046D300FF12279AEE24101247ECA2E3400C124774
:1046E300E9640170059081558003908156E0F9EEED
:1046F300FCEFFD7A047B1B1212FAE96046EEFAEF37
:10470300FB901B17124767122A69EE240E1247EC1F
:1047130054047020A8A8C2AF901B0BE00412546F7E
:10472300FAE8A2E792AF124756A3E05401702112B0
:1047330026A4801CEEFAEFFB901B0F124767122A88
:1047430069800D8E828F83A374F1124B56122698C3
:10475300024BF212475A22EE240EF582E43FF58310
:1047630022901B1912607922C082C0831226A402F0
:10477300493874F71205C9EAFEEBFF7900901B680C
:10478300E05402700CEE24301247EC5404600279BA
:10479300E8901B68E05460700CEE24301247EC5430
:1047A30002600279E88E828F83A3A3A3A3E0F8902B
:1047B300815BE0C398500279E8EE242E1247EC7037
:1047C3000CEE242B1247EC700479F5800BE970058D
:1047D300122686E9F9E96007EEFAEFFB1227700269
:1047E3004BF234FFF509EE240DF582E43FF583E047
:1047F30022C082C0838A828B83740DF0121C420212
:104803004938C082C0838A828B83E4F0A3F0EA2410
:104813003012443954049081557012E0F8901B0B08
:10482300E0C398401279F1122770024938E0F890FA
:104833001B0AE0C39850EE901B63E0F91212CA8082
:10484300E974F61205C9E9FE244CFAE43400FB12BC
:1048530012BEEA4B6012EE8A828B83A3A3A3A3F05A
:10486300EA244C12515A80047A007B00025FB9C0DB
:1048730082C083901B1F74F2F0A37426F0A37422EA
:10488300F0A37427F0A374F8F0A37426F0A374FEC6
:10489300F0A37426F0A3741CF0A37427F0A3741080
:1048A300F0A37427F0A3740AF0A37427F0A3742869
:1048B300F0A37427F0A3742EF0A37427F0A3743429
:1048C300F0A37427F0A37440F0A37427F0A3740437
:1048D300F0A37427F0A374ECF0A37426F0A374E69A
:1048E300F0A37426F0901B3B7416F0A37427F0A377
:1048F300743AF0A37427F0A3745AF0A37428F0A3B6
:104903007446F0A37427F0A3744CF0A37427F090BB
:104913001B5FE4F0901B62F0901B4B12492F740253
:10492300F0901B5412492F7401023FC0746AF0A324
:104933007427F0A322D083D082020B1674F51205DC
:10494300C974F1120BFC8518828519837402F07403
:1049530001120E73E9F060047AFF7BFF7402120EFA
:104963007312548975085775091B750A0078081264
:104973000B4D7C0B7D007407120E73AA82AB83125E
:10498300129A7403120B2EAA18AB19121C42740F3D
:1049930002661474F71205C974FD120BFC851882A4
:1049A300851983740AF07401120E73E9F07402120C
:1049B3000E73EA1249C9121C42023B3C85188285D8
:1049C3001983EAF0A3EBF0AA18AB192274F61205C7
:1049D300C974F7120BFCEAFEEBFF124A1F1232CC2A
:1049E3007402124B47AA18AB19121456EE242E1256
:1049F300329A2430125A56120B517402120BF47964
:104A0300831A1AEFFB1227CA7402120B2EE9F50858
:104A13007007EEFAEFFB1226AA025FB212475A742E
:104A2300012274F01205C91264FD120E047808798C
:104A33000C1204627808120B497A4E7B1B02351F55
:104A430074F41205C974C6120BFC9004B4E0640F2D
:104A53006010851882851983742E1249C912277C28
:104A630080277A457B1B1228A212314B12037A88C6
:104A7300088909E4F50AF50B7808120B497A457B96
:104A83001B1228967404120B2E743A02313A74F5F1
:104A93001205C9EAFEEBFF8E828F83A3E0F8600361
:104AA300024B30EE242D1247EC64026007E06403EE
:104AB300600278E8EE2423F582E43FF58312314463
:104AC300400478E8806AE87064EE2423FAE43FFB4C
:104AD30079E1120FD6EE242EFAE43FFB7950120F40
:104AE300D6EE242D1247EC6402700E125C45125C64
:104AF3007B9004C312516480129004C374FEF0A32C
:104B030004124B477ABA7B04121462EE2418123F44
:104B13005D120B4D7C0B7D007A577B1B12129A742E
:104B230003120B2EEEFAEFFB1226E0E9F8E8601110
:104B3300E88E828F83A3125EA77417124B56122737
:104B43007C026617F0EE2425FCE43FFD228E828F63
:104B5300837429F0EEFAEFFB2274F61205C974F799
:104B6300120BFC901B62E0703B7401F0F91210C051
:104B7300AA18AB191227AC75085775091B780812C8
:104B83000B517508017509007808120B519004C97F
:104B93001209957406120BF47A0379051227D0745F
:104BA30006120B2E025FB474F71205C9EAFEEBFF7F
:104BB30079011210C68E828F83E064207004A3747F
:104BC300EBF0901B62E0A2E25003C2E2F0E0A2E14C
:104BD3005008124DF41226DA800C8E828F83742AC9
:104BE300124B5612277C8007EEFAEFFB1228187F30
:104BF3000102088F74F41205C974FE120BFCEAFE5D
:104C0300EBFF79011210C67A457B1B1228A27A4E5C
:104C13007B1B1228A2124F3E851882851983124FDF
:104C230072E0F50B700FAA18AB197953120FD61255
:104C330066A4120FD6123F5A120B4D7C0B7D007ADD
:104C4300577B1B12129A7403120B2E851882851937
:104C530083125479A90B1226D4901B62E0A2E1506F
:104C63000C7A008E828F83A3E0F91226DA901B62FE
:104C7300E4F0740202313A74F71205C9EAFEEBFF5D
:104C83008E828F83A374EBF0901B62E0A2E1500746
:104C93007A0079EB1226DAEEFAEFFB122710024BB9
:104CA300F274F71205C9EAFEEBFF79011210C67A16
:104CB300457B1B1228A27A4E7B1B1228A2901B5FF6
:104CC300E4F0901B62F07AFF7BFF8E828F83A3E078
:104CD300F91226D4024BF274F71205C9EAFEEBFF70
:104CE30012270A024BEB74F71205C9EAFEEBFF79B0
:104CF300011210C68E828F83A3A3A3A3E060047462
:104D030000800274EB124D3B5003C2E2F0E0A2E1DB
:104D13005008124E3D1226DA8014A2E050108E8203
:104D23008F83742AF0A374EB124B5612277CEEFA8E
:104D3300EFFB1226BC024BF28E828F83A3F0901BF3
:104D430062E0A2E22274F61205C9EAFEEBFF901BB1
:104D530062E0D2E1F079011210C08E828F83A3E06A
:104D6300703C1227B2E9FAEE240DF508E43FF50989
:104D73007808120B517508017509007808120B5158
:104D8300124DB2120995EE2402FCE43FFD7905129F
:104D930027D07406120B2EE98E828F83A3F08E82A6
:104DA3008F83A3E060067A00F91226DA025FB91254
:104DB3004DB622EE240BF582E43FF5832274F712FD
:104DC30005C9EAFEEBFF79011210C68E828F83E0DC
:104DD30064207004A374EBF0901B62E0A2E2500322
:104DE300C2E2F0E0A2E15006124DF41226DA024BC1
:104DF300F2C2E1F07A008E828F83A3E0F92274F786
:104E03001205C9EAFEEBFF79011210C67A457B1B36
:104E13001228A28E828F83A3A3A3A3E0600474004D
:104E2300800274EB124D3B5003C2E2F0E0A2E1506A
:104E330006124E3D1226DA024D31C2E1123CA5A301
:104E4300E0A2E4E433FA8E828F83A3E0F92274F7BD
:104E53001205C9EAFEEBFF79011210C68E828F8319
:104E6300A374EB124D405003C2E2F0E0A2E15006FE
:104E7300124DF41226DA024BF274F71205C9EAFE58
:104E8300EBFF7A457B1B1228A2EEFAEFFB122734C5
:104E9300024BEB74F71205C9EAFEEBFF7A457B1B65
:104EA3001228A2EEFAEFFB122734024BF274F71228
:104EB30005C974EF120BFCEAFEEBFF125C4F7ABAE2
:104EC3007B04121450E96062851882851983740982
:104ED300F07401120E7374EFF0124F3EF874021265
:104EE3000E73E8124F72A3A3E0C0E07404120E73B2
:104EF300D0E0124F5F640870158E828F83A3A312D4
:104F03004F32E0C0E07405120E73D0E080067405E2
:104F1300120E73E4125CAE7406120E73AA82AB8394
:104F23001227E2AA18AB19121C427411023B3E125B
:104F33005C8C2407F582E438F58322124F54FB8AF4
:104F4300828B83125C7F88828983E0FCA3E0F9EC87
:104F530022EE2402F8E43FF9E8FAE922124F632231
:104F6300124F68E022F08E828F83A3A3A3A322F0C3
:104F7300A3E9125C9D124F7C22E0F8A3126080A388
:104F8300A322C082C083122824024938C082C0836E
:104F9300901B7F741FF0A3741BF0A3743BF0A374E6
:104FA3001BF0901CEF742DF0A3742DF0A374CBF0C1
:104FB300A3742CF0901B6B74CEF0A37426F0901B9B
:104FC30068E04401023FC0C082C083EAFCEBFD7984
:104FD30002122788024938C082C083790602614AD7
:104FE30074F61205C974FE120BFC901B6412520C6A
:104FF30060077A647B1B1227A0901B6AE4F090176A
:10500300B712520C60268007AA18AB191227A0907A
:105013001B63E0F91212D68A088B09A808A909852F
:105023001882851983125164E84970DC7402025FA7
:10503300B674F71205C9E9FA7B00901B63E0F91215
:105043001300024BF274F71205C974F0120BFCEA59
:10505300FCEBFDE9FE8C828D83E0F874C31251559D
:105063003430F583E493C0E07401120E73D0E0F0A2
:10507300640B700DEE8C828D83A3F012280602510F
:1050830048E07003025148640C6003025139741AFA
:105093006E700B7404120E73E4F0A302513874049F
:1050A300120E73ECF0A3EDF0EC242F12514DC0E07F
:1050B3007403120E73D0E0126210120E5C740612A7
:1050C3000E73120E448C828D83125C72740A120E5C
:1050D30073125164EC240E12514D5410600985185B
:1050E30082851983E48013EC241212514DF8900445
:1050F300D6E0C398851882851983F0E0C0E0740C6C
:10510300120E73D0E0F0EC241512514DC0E0740D73
:10511300120E73D0E0F0EC241612514DC0E0740E61
:10512300120E73D0E0F0EC241712514DC0E0740F4F
:10513300120E73D0E0F07402120E73EEF0740112CB
:105143000BEC121C427410023B3EF582E43DF583E6
:10515300E02228F582E422F8E43BF98A828B83A3D8
:10516300A3E8F0A3E9F022C082C083901B6AE06445
:1051730003700479018002790002493874F712053B
:10518300C9901B6AE01251F6126ADB8A828B83E0B4
:10519300C2E7F025E0F8EC1251553DF583A3E49303
:1051A300FE1251F6F58312520C6005EE901B6AF065
:1051B3008A828B83E0125202EC28F582ED39F58363
:1051C300E493FCC4540F25E0F87479125155341B51
:1051D300F58312520C70051227F48014EC540F253A
:1051E300E0FCE82CF582E439F583124767122A695B
:1051F300024BF212520274ED28F582741C392225F7
:10520300E0F8E433F922901B0D125C7FE849227425
:10521300F11205C974FE120BFC890AEAFEEBFF12B8
:10522300530EFA7B001212BE8A088B09EA45096005
:10523300388A828B83E50AF0A3E4F08E0C8F0DF598
:105243000E780C120B4DA80A12531BEA2402FAE43F
:105253003509FB12129A7403120B2EAA08AB09909C
:105263001B63E0F91212CA8012851882851983E53F
:105273000AF0791AAA18AB191227707402120B2EAE
:105283000233AA74F21205C974FE120BFC890B8A4D
:10529300088B0912530EF50AFA7B001212BE8A0C10
:1052A3008B0DAE0CAF0DEE4F604A8E828F83E50BF4
:1052B300F0A3E4F0A80AEE28F8E43FF98E828F8386
:1052C3001251628E828F83A3A3A3A3E4F0F50A781D
:1052D30008120B4DA80B12531B1236BD12129A74EF
:1052E30003120B2EEEFAEFFB901B63E0F91212CAC6
:1052F30079008014851882851983E50BF0791AAA41
:1053030018AB19122770791A023BD0748C29F582D5
:10531300E43430F583E4932274A228F582E4343034
:10532300F583E493FC7D0022C082C083E9901B6374
:10533300023FC074F61205C974FE120BFCEAFEEBC1
:10534300FFEE542070378040A8A8C2AF901B0CE03A
:105353001412546FF508E8A2E792AF8A828B831286
:105363005466901B6612548912277C85188285190E
:1053730083E0641560077A667B1B1227A07A067B9D
:105383001B1212E8EA4B70C0EF54807012801C901D
:105393001B6612548912277C7A667B1B1227A09006
:1053A3001B63E0F91212D6EA4B70E4EE5410600E60
:1053B300851882851983742D1249C912277CEEA2A0
:1053C300E0500E85188285198374241249C9122767
:1053D3007CEE5402600E8518828519837425124968
:1053E300C912277CEE5404600E85188285198374D4
:1053F300261249C912277CEE5408600E851882854F
:10540300198374281249C912277CEE544060107422
:1054130001120E73126471742C1249C912277CEEA7
:10542300548060107401120E73126471742F124948
:10543300C912277C901B6412520C6020A8A8C2AF2B
:10544300901B64125479901B64E4F0A312548F12DE
:10545300548812277C7A667B1B1227A07A007B0074
:1054630002502FE0851882851983F022F0E8A2E725
:10547300E43322901AEB12547D22E0FAA3E0FB22DC
:10548300A3A3A3A3A3A3EAF0A3EBF02212546FFEFA
:10549300E8A2E792AF22C082C083901B66125C7BB6
:1054A300EA687002EB697007901B66E4F0A3F002F0
:1054B300493874F71205C9EAFEEBFFEE4F70031289
:1054C3002908A2AFE433F508C2AF8E828F8312524C
:1054D3000C6028E824FBFAE934FFFB901B66126A90
:1054E300DDE86C7002E96D7007901B66E4F0A3F0D1
:1054F3008E828F83E4F0A3F012137202398FC0827D
:10550300C083901B8D74E8F0A37427F0A374FAF0A2
:10551300A37427F0A37400F0A37428F0A374B6F067
:10552300A37426F0A37406F0A37428F0A374B0F058
:10553300A37426F0A374BCF0A37426F0901B9B7491
:1055430036F0A37428F0A3740CF0A37428F0A374AA
:1055530012F0A37428F0A3741EF0A37428F0A374AC
:1055630018F0A37428F0901B8C023FBFC082C08345
:105573009004C3E064FE7003A3E0F470097CBA7D79
:105583000412145680158A828B83A3A3A3A3A3A317
:10559300A3A37402F01256F1125164024938C08277
:1055A300C0839004CDC3E094FEA3E094FF4004794C
:1055B3000380027902024938C082C0831256FC8CF0
:1055C300828D831256B1687039740268701C8A82A6
:1055D3008B8312560AE06870298A828B83A3125642
:1055E3000AA3E068701C7901801A7403687013ECD5
:1055F3002405FC50010DEA2405FA50010B12145C3A
:1056030080027900024938A3A3A3A3A3E0F88C8204
:105613008D83A3A3A3A3A32274F61205C97E0074EA
:105623000A120E73E01256A5FF8A828B83A3A3A3EB
:10563300A3A3A3A3A3E06F706474026F704E8A8266
:105643008B83C082C08388828983A3A3A3A3A3E09F
:10565300F50888828983A3A3A3A3A3A3E0FBAA08D5
:10566300D083D082E06A7003A3E06B7030888289B4
:1056730083A3A3A3E0FA88828983A3A3A3A3E0F966
:10568300EA6C7002E96D70157E01801174036F700E
:105693000CE82405FCE439FD12145CE9FEEEF90282
:1056A3005FB9F8A3E0F9888289831256B122A3E097
:1056B3001313543F540322C082C0838A828B83A373
:1056C300A3A3A3A3A3A3A3E0640270141256F1E05F
:1056D300687003A3E06970047901800F7900800B7F
:1056E300EAFCEBFD7ABA7B041214500249389004A9
:1056F300C3125C7F8A828B83228A828B831256B188
:10570300F82274EC1205C9EAFEEBFF8C128D1375B7
:105713000A008C828D83A3A3A3A3A3A3A3A3E0F571
:1057230010E9A2E75008750CFF750DFF8006900481
:10573300C9125941E9C2E7F511EE240E1247EC54A0
:1057430020600712592274088004125922E4125966
:10575300495404600712592A7480800512592A7427
:1057630010125949541060061258FAE4800B900441
:10577300D6E0C0E01258FAD0E0125949A2E0500333
:10578300750A20540860067410450AF50A8E828F44
:1057930083A3A3E024FFF508A3E01247E5C3940223
:1057A300E0400B640B6005E0141236CD7403450A28
:1057B300F50A750B009004E9E0640170118E828F85
:1057C30083A3A3A3A3E0C394674003750B108511C0
:1057D3000E750F00740E780E120D3FE50F450BF595
:1057E3000B7414120E73E0F50EA3E0F50F7402654B
:1057F30011700E9004CE1236CC9004CD125938801D
:10580300137403651170121259047CDD7D04AA0818
:10581300FB1214621259118004E5116028E510602F
:1058230014E50E650C7004E50F650D7008744045B2
:105833000AF50A8010850882850983E50D12594F00
:10584300E50C1236D385100C750D00740A780C1212
:105853000D3FE50D450BF50B7402651070158512B0
:1058630082851383A31236CC851282851383125942
:10587300388013740365107012125904AC12AD13FF
:10588300AA08FB1214621259118004E510601085F6
:105893000882850983E50F12594FE50E1236D3A806
:1058A30008A909E824FFF508E91247E57005900403
:1058B300B980039004C5E0FA04F0EA888289831270
:1058C30046C3E50B12594FE50AF0EE2404F8E43F12
:1058D300F91233B9AC088A828B83E0F50A8882898E
:1058E30083E0250AC39C125C99ECF0A3E509125EE0
:1058F30015E4F0F902311EEE2412F582E43FF5833C
:1059030022E50824F9F508E50934FFF509221259BF
:105913001522E50824FFF508E50934FFF50922EE11
:105923001245A53FF5832212592E22EE2411F5824A
:10593300E43FF58322E0850882850983F022E0F5C0
:105943000CA3E0F50D22F012475AE0221236D78558
:105953000882F5832274EE1205C9890A8A0B8C101A
:105963008D11750C1A7416120E731266B0AA08FB09
:105973001226568A0E8B0FAE0EAF0FEE4F60607479
:1059830014120E731259E9E8F0A3E91232CFE50AB3
:10599300F085080C85090D750E00780C120B4D125D
:1059A30036B912129A7403120B2E7412120E73125A
:1059B3000995AC10AD11A90BEEFAEFFB1227CA74CF
:1059C30002120B2EE9F50C7016E50A24F960031494
:1059D3007006123740D2E5F0EEFAEFFB1226AAA9C1
:1059E3000C7F0A02088F12608E12475B2274F61234
:1059F30005C974F7120BFCEAFEEBFF7801EE242FC6
:105A03001247EC60027805124756E81232CC740450
:105A1300125A49121456EE242C12329A242E125A78
:105A230056120B517402120BF479031A1AEFFB127C
:105A330027CA7402120B2EE9F5087007EEFAEFFB82
:105A43001226AA025FB2F0EE2423FCE43FFDAA185B
:105A5300AB1922F582E43FF5831233E4124F63045A
:105A6300F078082274F21205C98A088B09ECFEED5E
:105A7300FF8A828B837405F0EE24321247EC8A820C
:105A83008B83A3A3F0EA2403F50AE43509F50B8518
:105A93000A82F583125941125C45120E5CE50C1221
:105AA300457B350DF583120E44125C4FAA0CAB0DEA
:105AB300121456850A82850B83126086FAA3E0FBD3
:105AC30088828983A3A3A3125483EE242F1247EC65
:105AD300C0E0125C64D0E0125CA32415F582E438C4
:105AE300F583E4125CA3125C57E4125CAE850A8270
:105AF300850B83E02416FAA3E03400FB1227E28E21
:105B0300828F83A3A3A3A3A3A3A3E0C0E0850A82F8
:105B1300850B83125C88240DF582E438F583D0E08D
:105B2300125C92FAA3E0FB850A82850B83125C7BED
:105B3300E8240BFCE439FD8A828B83E08C828D831D
